:100000000C9469030C9451190C942A190C949103C3
:100010000C9491030C9491030C9491030C94DC17B1
:100020000C9491030C9491030C9491030C94AD07E0
:100030000C9491030C9491030C9491030C949103F0
:100040000C94E0180C9491030C9451170C942B17FA
:100050000C9491030C9491030C9491030C949103D0
:100060000C9478190C949103462A722A8E2AA72A96
:10007000D72A012B1D2B4E414E494E495459494E0A
:1000800046CDCCCC3D0AD7233C17B7D13877CC2B03
:10009000329595E6241FB14F0A000020410000C8A8
:1000A0004200401C4620BCBE4CCA1B0E5AAEC59D29
:1000B0007441644E6F76656120202020202032300C
:1000C0003138286329002D2D2D0047656967657239
:1000D0002D4D756C6C6572206465766963650043AF
:1000E0002D474D207600206279204C617572656E37
:1000F00074202F2041644E6F766561202D203230B0
:1001000031382863290A54797065203F20666F7260
:100110002075736167650A00432D474D20760053B3
:10012000454C45435420746F207475726E2D6F6674
:1001300066005455524E204F464620444953504C79
:1001400041593F0053454C45435420746F2073611F
:10015000766500536176656421005341564520540D
:100160004F20454550524F4D3F004E4554574F523A
:100170004B2041435449564154494F4E3A004C4953
:100180004748542054494D454F55543A004F6666F0
:10019000004F6E00534F554E443A0053454C454373
:1001A0005420746F20636C65617200436C656172EA
:1001B00065642100434C45415220434F554E544500
:1001C00052533F0053454C45435420746F205175A2
:1001D0006974004D454E553A0041644E6F76656135
:1001E000287229202D203230313828632900432DF0
:1001F000474D2076002E002E002E005376723D00D3
:100200004E2F41004465763D004E4554574F524BAA
:100210002049503A002043504D2000416C61726DDE
:100220002054687265733D2000205620005475628A
:100230006520482E562E20203D20005475626520F2
:10024000466163746F723D200052653A0053763AFE
:100250002000444F53452000434F554E5453202017
:100260003A20005F5F5F5F5F5F0044414E47455249
:100270002100454D455247454E435900435249548C
:100280004943414C0048494748204C4556454C009D
:100290005761726E696E670053616665004E6F72DA
:1002A0006D616C004176673A0043504D3A004D61F4
:1002B000783A0053763A002056004869676820561D
:1002C0006F6C746167653D20005741524E494E473F
:1002D0003A2000496E76616C696421004F4B0043FF
:1002E0006F6E6E656374696F6E3A20636C6F7365D1
:1002F0000D0A0D0A00436F6E74656E742D5479708B
:10030000653A20746578742F706C61696E0D0A000F
:10031000436F6E74656E742D547970653A20617008
:10032000706C69636174696F6E2F6A736F6E0D0A0A
:1003300000485454502F312E3120323030204F4B52
:100340000D0A0053454E44206661696C6564006384
:100350006F6D706C65746564210020485454502F93
:10036000312E300D0A003F00474554200053656E82
:1003700064696E672043504D2F4156472076616C6B
:1003800075657320004661696C65642100432D47E3
:100390004D20436F756E7465722049503A200029D4
:1003A0000A00202800467265652028422920203A4C
:1003B00020000A55534147453A0A202046414354FC
:1003C0004F523D7878782E780A202048563D78782C
:1003D00078205B302D3235355D0A2020414C41526A
:1003E0004D3D787878782043504D0A20205245536F
:1003F000455420636F756E746572730A0A2020423B
:100400004545503D4F4E2F4F46460A202054494DFA
:10041000454F55543D7878780A20204C43443D4F51
:100420004E2F4F46460A0A20204E4554574F524BF6
:100430003D4F4E2F4F46460A20204D41433D787890
:10044000783A7878783A7878783A7878783A787824
:10045000783A7878780A20205345525645523D78AC
:1004600078782E7878782E7878782E7878780A20B0
:100470002055524C3D2F7878782F7878782E7068F8
:10048000700A0A20204D454D4F52590A20204F50E6
:1004900054494F4E530A2020454550524F4D0A2093
:1004A0002056455253494F4E0A20204A534F4E0A78
:1004B00000220A097D0A7D0A7D00222C0A090922F0
:1004C00074696D65223A202200222C0A09092264EF
:1004D000617465223A2022002C0A09227665727323
:1004E000696F6E223A207B0A090922726576697368
:1004F000696F6E223A202200222C0A092266726558
:10050000655F737461636B223A2000222C0A092212
:1005100075726C223A2022002E002E002E00222C12
:100520000A09227365727665725F6970223A202229
:10053000004E2F41002C0A09226465766963655FCD
:100540006970223A2022002C0A09226E6574776FA6
:10055000726B223A20002C0A092274696D656F754E
:1005600074223A20002C0A0922736F756E64223AB5
:1005700020002C0A0922616C61726D223A20002C45
:100580000A09226876223A20002C0A0922766F6C2A
:1005900074616765223A2000222C0A092266616391
:1005A000746F72223A2000222C0A0922656C617055
:1005B000736564223A2022000922646576696365C6
:1005C0006964223A202200092264657363726970AB
:1005D00074696F6E223A2022432D474D20434F55B8
:1005E0004E544552222C0A0022706172616D7322B2
:1005F0003A207B0A000A7D2C0A000922454C502231
:100600003A20002C0A000922544F54223A20002C90
:100610000A000922415647223A20002C0A000922EA
:100620004D4158223A20002C0A00092243504D2205
:100630003A20007B0A2264617461223A207B0A001E
:1006400000000000240027002A0000000000230012
:100650002600290000000008000201000003040732
:10066000000000000000000053454C454354207436
:100670006F206D6F64696679004D6F6469667920DB
:100680007573696E67205553422F4C414E0001022D
:100690000408102040800102040810200102040810
:1006A000102000000000250028002B000404040492
:1006B000040404040202020202020303030303030C
:1006C000025361766520696E20454550524F4D00BA
:1006D000653211241FBECFEFD8E0DEBFCDBF12E0E0
:1006E000A0E0B1E0E6EDF3E702C005900D92AE3D6B
:1006F000B107D9F726E0AEEDB2E001C01D92A83CEB
:10070000B207E1F713E0C9E6D3E004C02197FE0188
:100710000E949539C836D107C9F70E94B9270C94B1
:10072000E9390C940000E091FC03F0E0EE0FFF1FAC
:10073000E350FC4F80819181019691838083809169
:10074000E7029091E802A091E902B091EA020196D5
:10075000A11DB11D8093E7029093E802A093E902E6
:10076000B093EA0281E08093280308958F929F92CC
:10077000AF92BF92CF92DF92EF92FF920F931F93AF
:10078000CF93DF93EC015A0149017A01C62E660F1F
:10079000DD08C7018A199B0988159905B4F4A801D9
:1007A00060E070E0CE010E947933F70161937F0130
:1007B000B601CE010E94CE39009739F0FC012081AC
:1007C000222319F0EC012196E4CFDF91CF911F9104
:1007D0000F91FF90EF90DF90CF90BF90AF909F90E0
:1007E0008F900895CF93C82F10920A01109209019B
:1007F0001092690660E08EE596E00E9475101092F6
:100800000601809107019091080197FD06C08FEFC6
:100810009FEF9093080180930701CC2359F00E9429
:100820001722809164068B7F809364068860CF9145
:100830000C940622CF910895CF93DF93CEE5D6E0B6
:100840008E81982F94609E838C600E94062288E09F
:100850008B8760E0CE010E94751081E080930601D5
:1008600080913D0190E090930A01809309010E94DC
:1008700017228FEF9FEF909308018093070110924A
:10088000E6021092E502DF91CF9108954F925F92B8
:100890006F927F928F929F92AF92BF92CF92DF9290
:1008A000EF92FF92CF93C090D404D090D504E09003
:1008B000D604F090D704C701B60120E831E541E045
:1008C00050E00E94DC3749015A013093D304209351
:1008D000D20420E1422E2EE0522E612C712CA30175
:1008E00092010E94DC372093D104C701B601A30115
:1008F00092010E94DC373CE3432E512C612C712C79
:10090000A30192010E94DC372093D004C701B601F5
:10091000A30192010E94DC376093CF04109206037A
:100920004AE065EC74E0C4010E94DD3465EC74E0DB
:1009300086E093E00E94C33966E872E086E093E0C7
:100940000E94C339C091D104CA3018F067E672E042
:1009500002C062E872E086E093E00E94C3394AE098
:1009600065EC74E08C2F90E00E94DD3465EC74E05F
:1009700086E093E00E94C339C091D004CA3018F0D9
:1009800064E872E002C061E872E086E093E00E94F1
:10099000C3394AE065EC74E08C2F90E00E94DD34AE
:1009A00065EC74E086E093E00E94C339C091CF0407
:1009B000CA3018F064E872E002C061E872E086E0D4
:1009C00093E00E94C3394AE065EC74E08C2F90E01C
:1009D0000E94DD3465EC74E086E093E0CF91FF90F7
:1009E000EF90DF90CF90BF90AF909F908F907F90CF
:1009F0006F905F904F900C94C339CF92DF92EF923B
:100A0000FF920F931F93CF93DF9300D000D000D0BD
:100A1000CDB7DEB78C0163E376E00E945B156AE236
:100A200076E0C8010E945B1540911B0350911C03A6
:100A300060E070E02AE0C8010E94941567E276E069
:100A4000C8010E945B156EE176E0C8010E945B154B
:100A50004091EF025091F00260E070E02AE0C8019E
:100A60000E9494156BE176E0C8010E945B1562E17B
:100A700076E0C8010E945B154091EB025091EC02B8
:100A80006091ED027091EE0222E030E0C8010E9418
:100A900037166FE076E0C8010E945B1566E076E0ED
:100AA000C8010E945B154091E7025091E8026091F5
:100AB000E9027091EA022AE0C8010E94941563E0FD
:100AC00076E0C8010E945B156AEF75E0C8010E94DC
:100AD0005B154091D4045091D5046091D604709177
:100AE000D7042AE0C8010E94941565EF75E0C8019B
:100AF0000E945B150E94460468EE75E0C8010E94E2
:100B00005B1567EC75E0C8010E945B1568EB75E04A
:100B1000C8010E945B1540910E0150E060E070E05A
:100B200020E1C8010E94941540910F0150E060E05F
:100B300070E020E1C8010E9494154091100150E03E
:100B400060E070E020E1C8010E949415409111011D
:100B500050E060E070E020E1C8010E9494154091EF
:100B6000120150E060E070E020E1C8010E9494159D
:100B70004091130150E060E070E020E1C8010E9464
:100B8000941567EA75E0C8010E945B1566E073E0A2
:100B9000C8010E94191768E975E0C8010E945B1539
:100BA00040913F015091400160914101709142019B
:100BB00022E030E0C8010E94371669E875E0C801FC
:100BC0000E945B150E94A127BC01990F880B990B0D
:100BD0000E94993620E030E048EC52E40E94F8365A
:100BE0006B017C0180913E01682F70E080E090E015
:100BF0000E9499369B01AC01C701B6010E94E338FF
:100C0000AB01BC0121E030E0C8010E9437166FE75C
:100C100075E0C8010E945B1540913E0150E060E024
:100C200070E02AE0C8010E94941562E775E0C801EF
:100C30000E945B1540913A0150913B0160E070E0E9
:100C40002AE0C8010E94941565E675E0C8010E947B
:100C50005B1560913C0170E0C8010E946B2766E55E
:100C600075E0C8010E945B1540913D0150E060E0D5
:100C700070E02AE0C8010E94941567E475E0C8019D
:100C80000E945B156091390170E0C8010E946B27DA
:100C900065E375E0C8010E945B15809139019E01F2
:100CA0002F5F3F4F7901882341F0C9010E942F2215
:100CB000B801C7010E94DD1505C061E375E0C801F8
:100CC0000E945B156EE175E0C8010E945B154091C2
:100CD000140150E060E070E02AE0C8010E94941521
:100CE0006CE175E0C8010E945B154091150150E070
:100CF00060E070E02AE0C8010E9494156AE175E0A6
:100D0000C8010E945B154091160150E060E070E060
:100D10002AE0C8010E94941568E175E0C8010E94AC
:100D20005B154091170150E060E070E02AE0C801D7
:100D30000E9494156BE075E0C8010E945B1568E1A4
:100D400071E0C8010E94191768EF74E0C8010E94A1
:100D50005B158091C2069091C306009711F488EC50
:100D600096E0B701681B790BC8010E946B2768EDFC
:100D700074E0C8010E945B1560E672E0C8010E9441
:100D8000191769EC74E0C8010E945B1568E672E00F
:100D9000C8010E9419176AEB74E0C8010E945B1534
:100DA00064E772E0C8010E94191761EB74E0C801A2
:100DB0000E94231626960FB6F894DEBF0FBECDBF55
:100DC000DF91CF911F910F91FF90EF90DF90CF9027
:100DD0000895CF93DF93EC01109275046EE872E0F2
:100DE00085E794E00E94C3394AE065EC74E08091A5
:100DF0001B0390911C030E94DD3480911A03882309
:100E000039F04AE065EC74E080E090E00E94DD3467
:100E100065EC74E085E794E00E94C339BE0185E784
:100E200094E00E94C33963E972E085E794E00E9490
:100E3000C3394AE065EC74E08091EF029091F002D2
:100E40000E94DD3465EC74E085E794E00E94C339CC
:100E5000BE0185E794E00E94C33968E972E085E746
:100E600094E00E94C3394AE065EC74E08091E702A7
:100E70009091E8020E94DD3465EC74E085E794E02F
:100E80000E94C339BE0185E794E00E94C3396DE931
:100E900072E085E794E00E94C3396091EB027091A3
:100EA000EC028091ED029091EE020E945539DC0136
:100EB000CB014AE065EC74E00E94DD3465EC74E03F
:100EC00085E794E00E94C339BE0185E794E00E9463
:100ED000C33962EA72E085E794E00E94C3394AE0D0
:100EE00065EC74E08091D4049091D5040E94DD34C7
:100EF00065EC74E085E794E00E94C33985E794E0EF
:100F0000DF91CF91089510921C0310921B03109251
:100F1000EB021092EC021092ED021092EE0210928F
:100F2000E7021092E8021092E9021092EA0210928F
:100F3000F0021092EF0288E7EDEFF3E0DF011D927F
:100F40008A95E9F71092FC031092D4041092D5040C
:100F50001092D6041092D70408951F920F920FB6E4
:100F60000F9211248F929F92AF92BF92CF92DF92F5
:100F7000EF92FF922F933F934F935F936F937F93E3
:100F80008F939F93AF93BF93CF93DF93EF93FF9391
:100F9000C090D404D090D504E090D604F090D7044B
:100FA000C701B6016F5F7F4F8F4F9F4F6093D4048F
:100FB0007093D5048093D6049093D704EDEFF3E0BB
:100FC000C0E0D0E021913191C20FD31F24E0E5377A
:100FD000F207C1F7D0931C03C0931B032091EF02CB
:100FE0003091F0022C173D0720F4D093F002C0930B
:100FF000EF020E9497362091EB023091EC02409173
:10100000ED025091EE020E94F8364B015C01BE01E8
:1010100080E090E00E9497369B01AC01C501B401CD
:101020000E9477384B015C01C701B6016E5F7F4FAC
:101030008F4F9F4F0E9497369B01AC01C501B401B1
:101040000E94E3386093EB027093EC028093ED0210
:101050009093EE020E945539672B51F484E00E9470
:10106000831761E0892B09F060E084E00E94AC17EF
:101070008091FC038F5F8093FC038C3328F081E028
:10108000809326031092FC03E091FC03F0E0EE0F46
:10109000FF1FE350FC4F1182108280910901909153
:1010A0000A01019790930A018093090181E08093DE
:1010B0000B01FF91EF91DF91CF91BF91AF919F9184
:1010C0008F917F916F915F914F913F912F91FF9001
:1010D000EF90DF90CF90BF90AF909F908F900F9048
:1010E0000FBE0F901F9018950F931F93CF93DF9310
:1010F00000D000D000D0CDB7DEB780913901882371
:1011000009F48AC16DE873E087EA95E00E945B15F7
:101110008091F40381112AC01092DC031092DB034A
:1011200088EE93E0A0E0B0E08093DD039093DE03CF
:10113000A093DF03B093E00382E891E09093DA0399
:101140008093D90380E592E09093E8038093E703CE
:101150001092E9031092EA031092EB031092EC0351
:1011600084E08093F10381E08093F40386E993E0C7
:1011700090935706809356066CE271E080E090E011
:101180000E949A181FB7F89480919503811127C087
:10119000E6EBF6E08491E8E9F6E09491E82FF0E0E0
:1011A000EE0FFF1FE05CF94FA591B491EC91E9239C
:1011B00021F461E08AE00E94AC1761E08AE00E94BD
:1011C0005E188CB580618CBD8CB580648CBD61E08F
:1011D0008DE00E945E1861E08BE00E945E188091B5
:1011E00095038F5F809395031FBF229A80E590E05F
:1011F0000E94382660E880E090E00E948C1165E54E
:101200008BE190E00E948C1165E58AE190E00E94FC
:101210008C110E94372680E090E49093980580938B
:10122000970580E090E69093A00580939F0580E06D
:1012300098E490939A058093990580E098E69093BE
:10124000A2058093A10580E090E590939C05809392
:101250009B0580E090E79093A4058093A30580E030
:1012600098E590939E0580939D0580E098E7909384
:10127000A6058093A50580E590E00E94382646E00B
:1012800050E06EE071E089E090E00E945D1180E541
:1012900092E09A8389831B821C821D821E82CE016A
:1012A00003960E9430260E94372680915606909120
:1012B0005706FC0112A213A214A215A216A217A28D
:1012C00010A611A612A613A614A615A640E65AEE5D
:1012D00060E070E046AB57AB60AF71AF40EA5FE0F3
:1012E00060E070E042AF53AF64AF75AFDC011896B9
:1012F00026E0FD01322F11923A95E9F7AC01425FE9
:101300005F4F34E1FA0111923A95E9F7EEE0F1E02E
:1013100001900D922A95E1F7FC01EE5BFF4F1082E0
:101320000E9432208C018130910509F051C080E586
:1013300090E00E9438266091560670915706625FD1
:101340007F4FCE0101960E941B17CE0103960E948B
:10135000302660915606709157066A5E7F4FCE0127
:1013600001960E941B1744E050E0BE016D5F7F4F65
:1013700081E090E00E945D116091560670915706E1
:101380006E5E7F4FCE0101960E941B1744E050E035
:10139000BE016D5F7F4F85E090E00E945D110E946D
:1013A00037266091560670915706625E7F4FCE01D8
:1013B00001960E941B178B819C81AD81BE81809319
:1013C000520690935306A0935406B093550609C055
:1013D000892B39F465E873E087EA95E00E942316CB
:1013E0001DC0CE0101960E942F2267EA75E0CE0152
:1013F00001960E94DD1565E672E087EA95E00E949D
:101400007F1584E896E00E941C0E60E084E00E9454
:10141000AC1701E010E002C000E010E0C801269621
:101420000FB6F894DEBF0FBECDBFDF91CF911F91F5
:101430000F910895CF92DF92EF92FF920F931F9337
:10144000CF93DF93CDB7DEB72C970FB6F894DEBFFE
:101450000FBECDBF8C019C878B87AE01455F5F4F70
:1014600060EA72E00E94B634BC01CE0101967C01B4
:101470000E94E2396701F70101900020E9F73197F6
:10148000EE19FF09C6018E199F098E179F0758F4A0
:10149000F6018081082E000C990B0E94A739F601F5
:1014A00081936F01E8CFF80180818F3319F462EBEB
:1014B00073E031C11981163469F48B859C850E94D3
:1014C0008B3460933F01709340018093410190936E
:1014D000420145C1183439F48B859C850E948F34B4
:1014E00080933E013CC1113449F48B859C850E9458
:1014F0008F3490933B0180933A0131C167EA72E0E7
:10150000C7010E94D939892B39F40E9483071092B0
:1015100085001092840023C1123481F4EB85FC8590
:101520008181082E000C990B0E94A73921E08E348E
:10153000910509F020E020933C0111C1143549F4D4
:101540008B859C850E948F34893708F406C188E713
:1015500004C11C3491F4EB85FC858181082E000CBC
:10156000990B0E94A7398E34910519F40E941C042E
:10157000F6C081E00E94F203F2C01E34E9F4EB856C
:10158000FC858181082E000C990B0E94A73921E06F
:101590008E34910509F020E020933901222349F08F
:1015A0000E94740821E0892B09F420E0209327038E
:1015B000D6C010922703D3C06DEA72E0C7010E9423
:1015C000D939892BA1F48B859C85FC0101900020E1
:1015D000E9F79F01225131092817390741F400E149
:1015E00010E026E030E04EE051E06AE315C013352C
:1015F000B1F48B859C85FC0101900020E9F79F01E7
:10160000205131092817390751F40AE010E024E08D
:1016100030E044E151E06EE20E94B603A0C061EB0D
:1016200072E0C7010E94D939892B39F46B857C851A
:1016300088E191E00E94E23992C01D34C9F58A81A7
:101640008534E9F565EA73E087EA95E00E945B1569
:101650006E01F9E0CF0ED11C8091C2069091C306B5
:10166000009711F488EC96E0C81AD90A0D2C000CEA
:10167000EE08FF08F7FE0EC06DE287EA95E00E94D3
:10168000541544275527BA014C195D096E097F0985
:101690002AE003C02AE0B701A60187EA95E00E948C
:1016A000941565E672E087EA95E00E947F1557C0C1
:1016B0001F3429F487EA95E00E94FD0450C065EBD1
:1016C00072E0C7010E94D939892B19F40E94DD21EB
:1016D00046C0163529F560E672E087EA95E00E947B
:1016E000191762EA73E087EA95E00E945B1568E6E5
:1016F00072E087EA95E00E9419176091F10287EA8B
:1017000095E00E94541564E772E087EA95E00E9434
:1017100019176FE973E087EA95E00E9423161FC04E
:101720006CEB72E0C7010E94D939892B21F481E06A
:101730008093250314C061EC72E087EA95E00E9473
:101740007F1565E672E087EA95E00E947F1587EADB
:1017500095E00E94BE1480E007C080933D0187EAB7
:1017600095E00E94BE1481E02C960FB6F894DEBF7F
:101770000FBECDBFDF91CF911F910F91FF90EF90E2
:10178000DF90CF900895CF93DF931F92CDB7DEB750
:101790006983DC01ED91FC910280F381E02D41E051
:1017A00050E0BE016F5F7F4F09950F90DF91CF91A1
:1017B0000895FC01818D928D0895FC01848995899D
:1017C000089520E532E0FC0131832083FB0140894C
:1017D000518962897389FC014283538364837583D1
:1017E0000895DC01ED91FC91048CF58DE02D0994B8
:1017F00080E00895CF93DF931F92CDB7DEB7698362
:10180000DC01ED91FC910280F381E02D41E050E09C
:10181000BE016F5F7F4F09950F90DF91CF910895C3
:10182000FC019485FB018485981303C081E094300A
:1018300009F480E0089521E0FC018485843009F4F6
:1018400020E0822F08950895AF92BF92CF92DF9249
:10185000FF920F931F93CF93DF938C015B01EA01FB
:10186000FC01C688D788F08C80E590E00E9438267D
:101870008F2D0E941A238C179D0720F48F2D0E9414
:101880001A23EC019E01A501B6018F2D0E94B522FD
:101890000E943726F801868997898C0F9D1F978BA8
:1018A000868BCE01DF91CF911F910F91FF90DF903A
:1018B000CF90BF90AF900895CF92DF92EF92FF92BA
:1018C0000F931F93CF93DF93CDB7DEB7AF970FB6CC
:1018D000F894DEBF0FBECDBF7C016A0100E512E0C7
:1018E0001A8309831C861B8688EE93E0A0E0B0E093
:1018F0008D879E87AF87B88B82E891E09A8789872A
:10190000188F0F8B198E1A8E1B8E1C8E84E089A364
:101910001DA30CA31EA21FA218A619A680915206F1
:1019200090915306A0915406B09155068CA79DA79F
:10193000AEA7BFA78B839C83AD83BE8318861F820F
:10194000AE014C5D5F4FCE0101960E94B71D813004
:101950009105B1F4D701ED91FC910488F589E02D52
:101960001BA70AA78EA19FA1A8A5B9A58CA79DA773
:10197000AEA7BFA7A601BE01665D7F4FC70109954F
:10198000AF960FB6F894DEBF0FBECDBFDF91CF91FB
:101990001F910F91FF90EF90DF90CF900895CF931C
:1019A000DF93EC01888D843061F00E94FC12E88D99
:1019B000F0E0EE0FFF1FE35EFC4F1182108284E027
:1019C000888FDF91CF910895EF92FF921F93CF936D
:1019D000DF93FC01208D243011F080E01CC07B01DE
:1019E000EC0110E0812F0E94CB13811102C0188FEF
:1019F00005C08831E1F31F5F1430A1F7888D843072
:101A000061F3FD86EC861A8E198E20E0A70162E054
:101A10000E94101381E0DF91CF911F91FF90EF9012
:101A200008950F931F93CF93DF931F92CDB7DEB727
:101A30008C01DC01ED91FC910084F185E02D09958C
:101A4000892B51F0BE016F5F7F4FF80184850E94A2
:101A5000AE11898190E002C08FEF9FEF0F90DF9170
:101A6000CF911F910F910895FC0184850C94081269
:101A7000CF93DF931F92CDB7DEB741E050E0BE01B8
:101A80006F5F7F4FFC0184850E94081218161906AB
:101A90001CF4898190E002C08FEF9FEF0F90DF91DF
:101AA000CF910895FC018485843011F00C94E611E7
:101AB00080E090E008959B0190E00496982F88279D
:101AC000642F820F931F0C948C110F931F93CF934D
:101AD000DF931F92CDB7DEB790E00496982F88274A
:101AE0008C01060F171F0E940C118FE00E94261117
:101AF000812F0E942611802F0E94261180E00E94D3
:101B0000261189830E940A1189810F90DF91CF915C
:101B10001F910F910895CF93FC01C08D80E590E057
:101B20000E94382660E270E08C2F0E941F2262E043
:101B300070E08C2F0E94650D84FD19C062E070E09A
:101B40008C2F0E94650D83FF0BC048E162E070E0BE
:101B50008C2F0E945B0D0E94372680E090E011C020
:101B60000E94372680E590E00E943826E0CF40E1D1
:101B700062E070E08C2F0E945B0D0E94372681E0AE
:101B800090E0CF910895CF93DF93C82FD62F472FA2
:101B900060E170E00E945B0D4D2F61E170E08C2FE1
:101BA000DF91CF910C945B0DFF920F931F93CF9316
:101BB000DF93FB01DC0157961C921E9256975896B4
:101BC000FC908281811109C08381811106C08481CA
:101BD000811103C085818823F9F041155105E1F099
:101BE0008A01EF0180E590E00E943826BE016E5F19
:101BF0007F4F2F2D30E0922F882744E050E0845F04
:101C00009B4F0E945D11B8018F2D0E94C30D0E9451
:101C1000372681E090E002C080E090E0DF91CF9134
:101C20001F910F91FF900895FC018485843011F07D
:101C30000C94CB1380E008958F929F92AF92BF9245
:101C4000CF92DF92EF92FF920F931F93CF93DF9388
:101C5000CDB7DEB72D970FB6F894DEBF0FBECDBF60
:101C60007C0100E010E038EE832E33E0932EA12CAF
:101C7000B12C40E1C42E42E0D42E1C821B828D8206
:101C80009E82AF82B886DA82C9820D87CE01019624
:101C90000E94140E811125C0F7014481558120E076
:101CA00061E0802F0E94101380E590E00E943826AA
:101CB00063E070E0802F0E94650D833129F462E0BB
:101CC00070E0802F0E941F220E943726F701848136
:101CD0009581000F111FF801E35EFC4F9183808313
:101CE00005C00F5F1F4F0430110539F62D960FB652
:101CF000F894DEBF0FBECDBFDF91CF911F910F9142
:101D0000FF90EF90DF90CF90BF90AF909F908F901B
:101D10000895CF93DF93FC0124852430D1F0EC01AA
:101D20000E94140E843181F0882371F0883161F0B3
:101D30008C3161F4E881F9810084F185E02DCE01D8
:101D4000099521E0892B19F420E001C021E0822FC0
:101D500001C080E0DF91CF910895CF92DF92EF92A2
:101D6000FF921F93CF93DF93FC0114851430A9F1E8
:101D7000EC0180E590E00E94382668E070E0812F59
:101D80000E941F220E9437260E94D4186B017C01FA
:101D9000CE010E94140E8823B1F061E070E080E073
:101DA00090E00E949A180E94D418DC01CB018C1993
:101DB0009D09AE09BF09883E9340A105B10540F3D6
:101DC0008C850E94FC12EC85F0E0EE0FFF1FE35EB5
:101DD000FC4F1182108284E08C87DF91CF911F919C
:101DE000FF90EF90DF90CF9008954F925F926F92A7
:101DF0007F928F929F92AF92BF92CF92DF92EF929B
:101E0000FF921F93CF93DF93CDB7DEB72D970FB619
:101E1000F894DEBF0FBECDBF7C019DE1A92E93E0FB
:101E2000B92E10E0C12CD12C28EE422E23E0522EE8
:101E3000612C712C30E1832E32E0932E1C821B82A8
:101E40004D825E826F8278869A8289821D87D50153
:101E50002D913D915D01F701848195812817390706
:101E6000B1F4CE0101960E94140E843169F0CE01C6
:101E700001960E94140E8C3151F4CE0101960E94FD
:101E8000520D892B91F003C0CC24C394D12C1F5F39
:101E90001430A1F6CD2871F4D701ED91FC910084A6
:101EA000F185E02DC701099505C0CE0101960E947C
:101EB000AD0EEDCF2D960FB6F894DEBF0FBECDBFA1
:101EC000DF91CF911F91FF90EF90DF90CF90BF9067
:101ED000AF909F908F907F906F905F904F900895FC
:101EE0002F923F924F925F926F927F928F929F922A
:101EF000AF92BF92CF92DF92EF92FF920F931F9318
:101F0000CF93DF93CDB7DEB72E970FB6F894DEBF31
:101F10000FBECDBF7C016B015A010E94F50E0DE191
:101F200013E020E0612C712C88EE282E83E0382EFF
:101F3000412C512C90E1892E92E0992E1C821B821B
:101F40002D823E824F8258869A8289822D87F8019F
:101F5000419151918F01F70184819581481759076B
:101F600041F4CE0101962E870E94140E2E858731F2
:101F7000E9F02F5F243011F7C3012E960FB6F894C5
:101F8000DEBF0FBECDBFDF91CF911F910F91FF90AC
:101F9000EF90DF90CF90BF90AF909F908F907F9009
:101FA0006F905F904F903F902F900895A501B601DC
:101FB000CE0101962E870E943B26680E791E2E8543
:101FC000D8CF9091E4028091E302981750F4E92F62
:101FD000F0E0E450FB4F208130E09F5F9093E402FB
:101FE00002C02FEF3FEFC90108958091E30290E016
:101FF0002091E402821B910908950895CF92DF9207
:10200000EF92FF920F931F93CF93DF937C01262FC4
:10201000972F8A018091FB04882391F0C62FD72F38
:102020006E01C40ED51ECC15DD0571F06991D70186
:10203000ED91FC910190F081E02DC7010995F3CF5E
:10204000642F822F0E94A61AC801DF91CF911F91A1
:102050000F91FF90EF90DF90CF900895CF93DF9393
:102060001F92CDB7DEB769832091FB042223D1F004
:102070002091E102203240F021E030E0FC01338386
:10208000228380E090E015C08091E202E82FF0E02A
:10209000E552FB4F998190838F5F8093E20280939A
:1020A000E10205C061E0CE0101960E94A61A81E01E
:1020B00090E00F90DF91CF9108951F93CF93DF931E
:1020C000182F66E270E00E94650DC82FD0E067E22D
:1020D00070E0812F0E94650DDC2FCC279E01282BFC
:1020E000C901DF91CF911F910895CF93FC01C48165
:1020F00021E02093FB04C093DA041092E2021092D4
:10210000E1028385682B84E496E00E942E10809182
:10211000E102813208F046C09091E0029111FCCFBB
:1021200092E09093E00291E09093DF029FEF909312
:102130001C0510923E0580933D05ABEDB4E02DE10A
:1021400035E0F9019E2F921B981718F49D919193F9
:10215000F9CF10923F0580913F05CC0FC82BC0935B
:102160003F058091DE02813061F41092DE028091A1
:102170003F058093BB008091BC0083FDF8CF85ECC8
:1021800001C085EE8093BC008091E0028230E1F3D3
:1021900080911C058F3F31F080911C05803211F039
:1021A00080911C051092E2021092E1021092FB0451
:1021B000CF9108950F931F93CF938C01C62F0E9448
:1021C00075106C2F6460C8010E9475106C2F6B7FB6
:1021D000C8010E94751083EC90E00197F1F7CF9150
:1021E0001F910F9108950F931F93CF938C01C62FCA
:1021F000607F61600E94DA1080E1C89FB001112405
:102200006160C8010E94DA1081E090E0CF911F91D7
:102210000F9108952A9A08952A9808951F93CF93AD
:10222000DF93182F60E270E00E94650DC82FD0E0A8
:1022300061E270E0812F0E94650DDC2FCC279E01AA
:10224000282BC901DF91CF911F9108958EBD000009
:102250000DB407FEFDCF8EB50895CF92DF92EF92B9
:10226000FF920F931F93CF93DF93EC017A018B01C1
:102270006C01C40ED51ECC15DD05A9F00E940C1111
:102280008FE00E9426118D2F0E9426118C2F0E9414
:102290002611219680E00E942611F80181938F017A
:1022A0000E940A11E8CFC701DF91CF911F910F91D2
:1022B000FF90EF90DF90CF900895CF92DF92EF9252
:1022C000FF920F931F93CF93DF93EC017A018B0161
:1022D0006C01C40ED51ECC15DD05A1F00E940C11B9
:1022E00080EF0E9426118D2F0E9426118C2F0E94B4
:1022F00026112196F80181918F010E9426110E94DA
:102300000A11E9CFC701DF91CF911F910F91FF9083
:10231000EF90DF90CF9008951F93CF93DF9300D07D
:10232000CDB7DEB7182F6A8399830E940C1180EF16
:102330000E9426119981892F0E942611812F0E94C7
:1023400026116A81862F0E9426110E940A1181E0BF
:102350000F900F90DF91CF911F9108951F93CF930E
:10236000DF9300D0CDB7DEB7182F80E590E069830A
:102370007A830E94382621E041E050E069817A8129
:10238000812F0E944D220E94372681E090E00F901D
:102390000F90DF91CF911F910895CF93DF931F92FC
:1023A000CDB7DEB7FC01218D328D232B49F0BE0164
:1023B0006F5F7F4F808D0E94AE11898190E002C0D7
:1023C0008FEF9FEF0F90DF91CF910895FF920F93C2
:1023D0001F93CF93DF93F82E80E590E00E9438267C
:1023E000C0E0D0E08F2D0E945D108C01892B21F080
:1023F0008F2D0E945D10EC01C017D10799F70E9444
:102400003726CE01DF91CF911F910F91FF90089554
:10241000AF92BF92CF92DF92EF92FF921F93CF9332
:10242000DF93182F5B017A0180E590E00E94382647
:10243000C0E0D0E0812F0E945D106C01892B21F05B
:10244000812F0E945D10EC01CC15DD0599F72097D6
:1024500099F463E070E0812F0E94650D8431F1F002
:102460008823E1F0C1E0D0E08C3111F4C0E0D0E08D
:10247000D195C195D10912C0EC16FD060CF4E70107
:102480001C161D065CF420E0AE01B501812F0E94F0
:102490004D2260E470E0812F0E941F220E943726A7
:1024A000CE01DF91CF911F91FF90EF90DF90CF9001
:1024B000BF90AF900895CF93DF93FC01218D328DB3
:1024C0002115310519F48FEF9FEF11C0EC01421770
:1024D000530708F0A901888D0E94081218161906E2
:1024E00094F7298D3A8D281B390B3A8F298FDF916C
:1024F000CF9108950F931F93CF93DF931F92CDB782
:10250000DEB7FC01218D328D232B61F08C0141E07F
:1025100050E0BE016F5F7F4F808D0E940812181639
:1025200019061CF08FEF9FEF08C0F801818D928D86
:102530000197928F818F898190E00F90DF91CF91E9
:102540001F910F9108950F931F93CF93DF93CDB7F2
:10255000DEB728970FB6F894DEBF0FBECDBF8C0153
:10256000F801818D928D892B49F0D801ED91FC9174
:102570000284F385E02DC8010995F2CF808D0E9479
:10258000E611181619065CF548E050E0BE016F5FD1
:102590007F4FD80158968C910E9408129C01181602
:1025A0001906DCF489819A81AB81BC81F801808BAA
:1025B000918BA28BB38B8D8190E0982F88272E81F1
:1025C000820F911D958B848B2F8130E0322F222733
:1025D0008885280F311D328F218FC90102C080E00C
:1025E00090E028960FB6F894DEBF0FBECDBFDF9106
:1025F000CF911F910F910895CF93C82F80E590E060
:102600000E94382660E170E08C2F0E941F224FEF5D
:1026100062E070E08C2F0E945B0DCF910C94372606
:10262000FF920F931F93CF93DF9300D0CDB7DEB708
:10263000F82E8A012A8369830E94FC1280E590E0CB
:102640000E9438262A816981462F422B60E070E083
:102650008F2D0E945B0D0115110551F40091D804D6
:102660001091D9040F5F1F4F1093D9040093D80421
:10267000412F64E070E08F2D0E945B0D402F65E0DC
:1026800070E08F2D0E945B0D61E070E08F2D0E9445
:102690001F220E94372681E00F900F90DF91CF918B
:1026A0001F910F91FF900895BF92CF92DF92EF920A
:1026B000FF920F931F93CF93DF9300D000D000D0F1
:1026C000CDB7DEB7FC01208D243009F053C06A017C
:1026D0007B018C01B12C63E070E08B2D0E94650DB5
:1026E000811103C0F801B08E06C08831D9F3B394CC
:1026F000F4E0BF12F0CFF801808D8430D9F196E07C
:10270000E6EAF1E0DE01119601900D929A95E1F76B
:10271000F70193819F779C8394819D8395819E830C
:10272000B7016E5F7F4F90E0982F882744E050E01C
:10273000845F9B4F0E945D11B601F801808D0E945D
:10274000C30DF801808D90E0982F882746E050E077
:10275000BE016F5F7F4F8A5F9B4F0E945D11F80142
:10276000128E118E20E8A60162E0808D0E94101367
:1027700081E001C080E026960FB6F894DEBF0FBE60
:10278000CDBFDF91CF911F910F91FF90EF90DF9020
:10279000CF90BF9008951F93CF93DF931F92CDB733
:1027A000DEB7182F80E590E00E94382663E070E0E5
:1027B000812F0E94650D89830E94372689810F90A1
:1027C000DF91CF911F910895CF92DF92EF92FF9208
:1027D0000F931F93CF93DF936C017A018B01C0E0BD
:1027E000D0E0CE15DF0589F0D8016D918D01D601BD
:1027F000ED91FC910190F081E02DC6010995892BA6
:1028000011F47E0102C02196ECCFC701DF91CF9178
:102810001F910F91FF90EF90DF90CF900895FC01F2
:10282000538D448D252F30E0842F90E0821B930B35
:10283000541710F0CF96089501970895FC01918DDB
:10284000828D981761F0828DDF01A80FB11D5D9612
:102850008C91928D9F5F9F73928F90E008958FEF80
:102860009FEF0895FC01918D828D981731F0828D34
:10287000E80FF11D858D90E008958FEF9FEF08958B
:10288000FC01918D228D892F90E0805C9F4F821BEF
:1028900091098F739927089587EA95E00E94401463
:1028A00021E0892B09F420E0822F0895FC01848D1A
:1028B000DF01A80FB11DA35ABF4F2C91848D90E06A
:1028C00001968F739927848FA689B7892C93A08945
:1028D000B1898C9180648C93938D848D981306C0FC
:1028E0000288F389E02D80818F7D80830895EF92A7
:1028F000FF920F931F93CF93DF93EC0181E0888FBA
:102900009B8D8C8D981305C0E889F989808185FDA0
:1029100024C0F62E0B8D10E00F5F1F4F0F73112791
:10292000E02E8C8DE8120CC00FB607FCFACFE889B8
:10293000F989808185FFF5CFCE010E945614F1CF31
:102940008B8DFE01E80FF11DE35AFF4FF0820B8FD4
:10295000EA89FB898081806207C0EE89FF896083F4
:10296000E889F98980818064808381E090E0DF914B
:10297000CF911F910F91FF90EF900895CF93DF9328
:10298000EC01888D8823C9F0EA89FB89808185FD67
:1029900005C0A889B9898C9186FD0FC00FB607FCC8
:1029A000F5CF808185FFF2CFA889B9898C9185FF09
:1029B000EDCFCE010E945614E7CFDF91CF9108955D
:1029C00080E090E0892B29F00E944C1481110C9436
:1029D00000000895833081F028F4813099F082302E
:1029E000A1F008958730A9F08830B9F08430D1F48F
:1029F000809180008F7D03C0809180008F778093CD
:102A00008000089584B58F7702C084B58F7D84BD22
:102A100008958091B0008F7703C08091B0008F7DC2
:102A20008093B00008953FB7F89480918C05909101
:102A30008D05A0918E05B0918F0526B5A89B05C088
:102A40002F3F19F00196A11DB11D3FBFBA2FA92F2D
:102A5000982F8827820F911DA11DB11DBC01CD01AA
:102A600042E0660F771F881F991F4A95D1F7089596
:102A7000089585ED8093BC008091BC0084FDFCCF5F
:102A80001092E0020895089581E090E03091E40210
:102A90002091E302321710F480E090E09195819547
:102AA000910908950E94A239DC01ED91FC910190F9
:102AB000F081E02D0994EF92FF920F931F93CF9333
:102AC000DF938C017B01C0E0D0E0F701EC0FFD1F2C
:102AD0006491662361F0D801ED91FC910190F08141
:102AE000E02DC8010995892B11F02196EECFCE017A
:102AF000DF91CF911F910F91FF90EF900895611595
:102B0000710579F0FB0101900020E9F73197AF01E1
:102B1000461B570BDC01ED91FC910280F381E02D07
:102B2000099480E090E008954F925F926F927F92B7
:102B3000EF92FF920F931F93CF93DF93CDB7DEB742
:102B4000A1970FB6F894DEBF0FBECDBF7C01FA018E
:102B5000CB0119A2223008F42AE08E010F5D1F4F2D
:102B6000422E512C612C712CBF01A30192010E94B5
:102B7000DC37F901CA01015011096A3014F4605DB3
:102B800001C0695CD8016C93232B242B252B61F7A2
:102B9000B801C7010E947F15A1960FB6F894DEBF59
:102BA0000FBECDBFDF91CF911F910F91FF90EF909E
:102BB0007F906F905F904F9008958F929F92AF9209
:102BC000BF92CF92DF92EF92FF920F931F93CF931A
:102BD000DF937C018B016C0182E0C80ED11C4701A0
:102BE000E5E08E0E911CC0E0D0E0F60141916F014E
:102BF00050E060E070E02AE0C8010E9494155C019A
:102C00006EE2C8010E9454158A0D9B1DC80FD91F82
:102C1000C814D90451F7F701458150E060E070E035
:102C20002AE0C8010E9494158C0F9D1FDF91CF915F
:102C30001F910F91FF90EF90DF90CF90BF90AF90DA
:102C40009F908F9008950F931F93CF93DF93EC0184
:102C50000E945B158C0165E672E0CE010E947F1533
:102C6000800F911FDF91CF911F910F9108954F9287
:102C70005F926F927F928F929F92AF92BF92CF920C
:102C8000DF92EF92FF92CF93DF93EC016A017B0119
:102C9000B22E9A01AB01C701B6010E949039882378
:102CA00019F06AEC72E027C026013701E89477F842
:102CB0002FEF3FEF4FE75FE7C301B2010E9490396A
:102CC00081110DC02FEF3FEF4FE75FE7C301B20166
:102CD0000E94923618161CF46EEC72E00CC02FEFB6
:102CE0003FEF4FE75FE4C701B6010E948B3918162A
:102CF0009CF462ED72E0CE01DF91CF91FF90EF90F6
:102D0000DF90CF90BF90AF909F908F907F906F900B
:102D10005F904F900C947F152FEF3FEF4FE75FECE4
:102D2000C701B6010E94923687FDE3CF20E030E074
:102D3000A901C701B6010E94923687FF0AC06DE261
:102D4000CE010E9454154C01F7FAF094F7F8F09474
:102D500002C0812C912CA12C60E070E080E09FE308
:102D6000AB1440F420E030E040E251E40E94E3384C
:102D7000A394F6CF9B01AC01C701B6010E9477383E
:102D80002B013C010E945C396B017C010E9497364B
:102D90009B01AC01C301B2010E9476382B013C01BA
:102DA0002AE0B701A601CE010E9494157C01E80C2F
:102DB000F91CBB2031F06EE2CE010E945415E80EE2
:102DC000F91EDB2CDD2029F120E030E040E251E467
:102DD000C301B2010E94F8362B013C010E945C390C
:102DE0004B01A12CB12C2AE0B501A401CE010E9417
:102DF0009415E80EF91EC501B4010E9497369B0197
:102E0000AC01C301B2010E9476382B013C01DA9477
:102E1000D9CFC701DF91CF91FF90EF90DF90CF9096
:102E2000BF90AF909F908F907F906F905F904F90EA
:102E300008950C947F1520E532E0FC013183208356
:102E4000FB014081518162817381FC014283538384
:102E50006483758308951F920F920FB60F92112409
:102E60002F933F934F935F936F937F938F939F9392
:102E7000AF93BF93EF93FF9387EA95E00E945614B8
:102E8000FF91EF91BF91AF919F918F917F916F9142
:102E90005F914F913F912F910F900FBE0F901F9018
:102EA00018951F920F920FB60F9211242F938F93A4
:102EB0009F93EF93FF93E091B705F091B805808160
:102EC000E091BD05F091BE0582FD12C09081809118
:102ED000C0058F5F8F732091C105821751F0E0917B
:102EE000C005F0E0E955FA4F958F8093C00501C009
:102EF0008081FF91EF919F918F912F910F900FBE45
:102F00000F901F901895CF93DF93282F30E0F90191
:102F1000EC5AF94F8491F901E257F94FD491F90134
:102F2000E455F94FC491CC2391F081110E94EA1429
:102F3000EC2FF0E0EE0FFF1FE65BF94FA591B49187
:102F4000EC91ED2381E090E021F480E002C080E08C
:102F500090E0DF91CF9108951F93CF93DF93282FB7
:102F600030E0F901EC5AF94F8491F901E257F94F39
:102F7000D491F901E455F94FC491CC23C9F0162F2F
:102F800081110E94EA14EC2FF0E0EE0FFF1FEE55C6
:102F9000F94FA591B4918FB7F894111105C09C9188
:102FA000ED2FE095E92302C0EC91ED2BEC938FBF60
:102FB000DF91CF911F9108951F920F920FB60F923C
:102FC00011242F933F934F935F936F937F938F932E
:102FD0009F93AF93BF93EF93FF938091930590914D
:102FE0009405A0919505B0919605892B8A2B8B2B82
:102FF00059F180919005E0919105F09192059081B1
:10300000892780838091930590919405A0919505DF
:10301000B0919605181619061A061B060CF03DC04D
:103020008091930590919405A0919505B091960596
:103030000197A109B1098093930590939405A093FA
:103040009505B093960529C080910C01E0ECF6E05F
:10305000E4919FEF90930C01E130B9F098F0E230E9
:10306000C9F4909170009D7F9093700091E09093CF
:10307000B0009091B100987F94609093B10010924D
:10308000B30008C010926E0005C090916F009D7F44
:1030900090936F0060E00E94AC17FF91EF91BF9199
:1030A000AF919F918F917F916F915F914F913F91E0
:1030B0002F910F900FBE0F901F901895CF93DF9315
:1030C00090E0FC01E257F94F2491FC01E455F94FDF
:1030D0008491882361F190E0880F991FFC01E05CE6
:1030E000F94FC591D491FC01EE55F94FA591B491DA
:1030F000611109C09FB7F894888120958223888345
:10310000EC912E230BC0623061F49FB7F8943881A4
:10311000822F809583238883EC912E2B2C939FBF45
:1031200006C08FB7F894E8812E2B28838FBFDF91DC
:10313000CF9108958F929F92AF92BF92CF92DF92DC
:10314000EF92FF926B017C010E9413154B015C0111
:10315000C114D104E104F104F1F00E941315DC0163
:10316000CB0188199909AA09BB09883E9340A1059A
:10317000B10570F321E0C21AD108E108F10888EE28
:10318000880E83E0981EA11CB11CC114D104E10477
:10319000F10419F7DDCFFF90EF90DF90CF90BF9053
:1031A000AF909F908F9008952FB7F8946091880505
:1031B0007091890580918A0590918B052FBF0895A4
:1031C0001F920F920FB60F9211242F933F938F935C
:1031D0009F93AF93BF938091880590918905A091AB
:1031E0008A05B0918B053091870523E0230F2D3799
:1031F00020F40196A11DB11D05C026E8230F0296FB
:10320000A11DB11D209387058093880590938905A2
:10321000A0938A05B0938B0580918C0590918D05C4
:10322000A0918E05B0918F050196A11DB11D8093CF
:103230008C0590938D05A0938E05B0938F05BF915B
:10324000AF919F918F913F912F910F900FBE0F9053
:103250001F9018951F920F920FB60F9211242F9363
:103260003F934F935F936F937F938F939F93AF930E
:10327000BF93EF93FF93E0910401F091050109954D
:10328000FF91EF91BF91AF919F918F917F916F913E
:103290005F914F913F912F910F900FBE0F901F9014
:1032A00018951F920F920FB60F9211242F933F93F0
:1032B0004F935F936F937F938F939F93AF93BF933E
:1032C000EF93FF93E0910201F09103010995FF91C3
:1032D000EF91BF91AF919F918F917F916F915F918E
:1032E0004F913F912F910F900FBE0F901F90189507
:1032F0001F920F920FB60F9211242F933F934F936B
:103300005F936F937F938F939F93AF93BF93EF934D
:10331000FF938091B900887F803609F49CC068F5DE
:10332000883209F45BC090F4803109F454C038F459
:10333000882309F4F6C0883009F44DC0F6C08831FE
:1033400009F44CC0803209F45DC0EFC0803409F448
:1033500068C048F4803309F455C0883309F0E5C0EB
:1033600080931C05D8C0803509F44FC0883509F416
:103370005DC0883409F0D9C0D6C0883909F4C7C007
:10338000A8F4883709F467C038F4883609F463C0B4
:10339000803709F460C0C9C0883809F4B8C08039E2
:1033A00009F45FC0803809F0C0C05BC0803B09F4FD
:1033B00086C038F4803A09F466C0883A09F47FC0C0
:1033C000B4C0803C09F4A7C0883C09F4A4C0883B81
:1033D00009F48AC0AAC080913F0510C090913E05B3
:1033E00080913D05981770F5E0913E0581E08E0FC4
:1033F00080933E05F0E0E35EFA4F80818093BB004E
:1034000085EC86C080931C058EC0E0913E0581E06E
:103410008E0F80933E058091BB00F0E0E35EFA4F93
:10342000808390913E0580913D056EC0E0913E0500
:1034300081E08E0F80933E058091BB00F0E0E35E5B
:10344000FA4F80838091DF0281116DC081E080930B
:10345000DE0284EA61C083E08093E0021092860578
:10346000CFCF80918605803208F051C0E09186056B
:1034700081E08E0F809386058091BB00F0E0EA59D1
:10348000FA4F8083BDCF85EC8093BC001092E002A0
:1034900080918605803230F4E0918605F0E0EA59AB
:1034A000FA4F10826091860570E0E0916405F0911A
:1034B000650586E695E009951092860536C084E09C
:1034C0008093E0021092630510926205E09160051E
:1034D000F0916105099580916205811105C081E037
:1034E0008093620510924005E091630581E08E0FA4
:1034F00080936305F0E0E05CFA4F80818093BB002D
:103500009091630580916205981708F479CF85E85A
:103510008093BC000AC085EC8093BC001092E0024E
:1035200004C010921C050E943915FF91EF91BF91C4
:10353000AF919F918F917F916F915F914F913F914B
:103540002F910F900FBE0F901F901895409162051C
:10355000262F30E0240F311D21323105DCF420917B
:10356000E0022430C9F4FC0180E090E0861758F4B2
:10357000309162052191DC01A05CBA4FA30FB11D0F
:103580002C930196F3CF80916205680F60936205DA
:1035900080E0089581E0089582E0089580E3FB01D2
:1035A00080833296842F82958F7090E1899F401995
:1035B00011244A3014F4405D01C0495C4293482F05
:1035C0008111F0CF08952F923F924F925F926F92A8
:1035D0007F928F929F92AF92BF92CF92DF92EF92A3
:1035E000FF920F931F93CF93DF93CDB7DEB7E3978F
:1035F0000FB6F894DEBF0FBECDBF7C011A012B01C0
:1036000039010E94D4184B015C0187010D5B1F4FEB
:10361000C8010E94A31218161906A4F00E94D4181B
:10362000DC01CB0188199909AA09BB0928163906BA
:103630004A065B06D8F062E370E080E090E00E940A
:103640009A18E6CF42E250E0BE016F5F7F4FC8019B
:103650000E945B128981823011F080E061C1F80123
:103660008489958983349105C1F702C08FEF58C1D1
:103670006D817E818F8198850E949B394B015C0111
:10368000F301608371838283938346E050E0B70146
:10369000685F7F4FCE014D960E94AF39892BE9F6C6
:1036A000F70180819181A281B38188169906AA06CB
:1036B000BB0698F284819581A681B781881599050A
:1036C000AA05BB0550F289899A89AB89BC8986878E
:1036D0009787A08BB18B8EECA82EB12CC8010E94CD
:1036E0007A12F1E0AF1AB108C9F719A6670182E2B0
:1036F000C80ED11CF701B696FBA7EAA7C7018A96A8
:103700009DA78CA73C974F0189969FA78EA73897B6
:10371000F9ABE8AB1701F6E12F0E311CC5979BAB57
:103720008AABF801818D928D181619060CF0F7C03E
:10373000C8010E947A128333910509F4CBC0FCF4CE
:1037400081309105C9F11CF4892B59F3DCC0833019
:103750009105D1F1069709F0D6C0C8010E947A12EE
:103760005C0144E050E06AA97BA9C8010E945B1299
:10377000412C512CBB24F4E0AF1AB10840C08A336D
:10378000910509F47BC03CF48533910569F0C69737
:1037900009F440C0B8C08B33910509F485C08F3F50
:1037A000910509F4BECFAFC0C8010E947A12C801CA
:1037B0000E947A1289A7B5CFC8010E947A1244E00C
:1037C00050E068A979A93AC0C8010E947A125C0148
:1037D00044E050E0B101C8010E945B12412C512C21
:1037E000BB2494E0A91AB1084A145B040CF099CFE9
:1037F000C8010E947A12EFEF4E1A5E0AF5CF4A1402
:103800005B040CF08ECFC8010E947A128FEF481A29
:10381000580AF5CFC8010E947A12B82EF701828D9E
:10382000811110C0838D81110DC0848D81110AC05A
:10383000858D811107C044E050E0B401C8010E94A9
:103840005B126FCFEEA5FFA5408051806280738030
:10385000B401CE0183960E941B178DA19EA1AFA13A
:10386000B8A584159505A605B70529F3BB2009F46D
:1038700058CFC8010E947A12BA94F8CFC8010E94AA
:103880007A1244E050E06AA57BA5C8010E945B1251
:10389000F70166A177A180A591A50E949B3966A337
:1038A00077A380A791A73DCFC8010E947A1244E078
:1038B00050E06CA57DA5C8010E945B12F70162A5CE
:1038C00073A584A595A50E949B3962A773A784A7B9
:1038D00095A727CFC8010E947A1244E050E0B601B4
:1038E000C8010E945B12F70162A173A184A195A196
:1038F0000E949B3962A373A384A395A366A777A7AD
:1039000080AB91AB0ECFC8010E947A12B82EBB20BB
:1039100009F407CFC8010E947A12BA94F8CF89A59A
:10392000E3960FB6F894DEBF0FBECDBFDF91CF9107
:103930001F910F91FF90EF90DF90CF90BF90AF90CD
:103940009F908F907F906F905F904F903F902F90BF
:1039500008957F928F929F92AF92BF92CF92DF9203
:10396000EF92FF920F931F93CF93DF93CDB7DEB704
:10397000A6970FB6F894DEBF0FBECDBF8C01762E92
:10398000942E852E20E2B22ECE0101967C01FC0100
:103990002B2D11922A95E9F780E592E09AA389A34D
:1039A0008FEF8BA38CA38DA38EA3680183E4C80E35
:1039B000D11C43E450E0BE016F5D7F4FC6010E9401
:1039C000D40D019609F4BFC081E089838A8386E023
:1039D000A82EAB821C82F801648175818681978153
:1039E0000E949B396D837E838F83988789869A8610
:1039F00080E890E09C878B874CE150E0B701C601DE
:103A00000E94240CF7012B2D11922A95E9F7480109
:103A100088E0880E911CF401D70101900D92AA94C0
:103A2000E1F740E150E0B701C6010E94240CF70124
:103A30001192BA94E9F796E0A92EB12C40E250E039
:103A4000B701C6010E94240CF1E0AF1AB108B1F72A
:103A500083E6898392E89A8393E59B838C8385E34D
:103A60008D8381E08E837F829DE3988797E099879D
:103A70008A8786E0F401DE011B9601900D928A95FB
:103A8000E1F78CE0898B8A8B66ED72E0CE0143967C
:103A90000E94E239F8014385BE01675E7F4FC8018D
:103AA0000E94CE1AF8014485BE01655E7F4FC801B1
:103AB0000E94CE1AF8014585BE01635E7F4FC801A2
:103AC0000E94CE1A4EE150E0B701C6010E94240CBC
:103AD000F3E07F121EC082E3898384E08A83F801C9
:103AE00096859B8397859C8390899D8391899E83EE
:103AF00096E39F838887828D8987838D8A87848DCB
:103B00008B87858D8C874CE050E0B701C6010E9401
:103B1000240C87E3898386E08A8391E09B8393E08A
:103B20009C838D838FE08E838AE38F838BE38887EA
:103B30008FEF898749E050E0B701C6010E94240C4D
:103B4000C6010E948B0DA6960FB6F894DEBF0FBE7D
:103B5000CDBFDF91CF911F910F91FF90EF90DF903C
:103B6000CF90BF90AF909F908F907F9008952F92AD
:103B70003F924F925F926F927F928F929F92AF92FD
:103B8000BF92CF92DF92EF92FF920F931F93CF934A
:103B9000DF93CDB7DEB765970FB6F894DEBF0FBEE3
:103BA000CDBF7C016B013A01FB0120E080E090E099
:103BB0006AE03191332309F140ED430F4A3080F43C
:103BC000689FA001699F500D1124CA01C097830FFF
:103BD000911D37FD9A958F3F910559F350F313C00E
:103BE0003E3289F4233079F0D301A20FB11D129631
:103BF0008C932F5F80E090E0DCCF233021F4F30141
:103C0000858381E021C0F701428153816481758100
:103C100080915A0690915B06A0915C06B0915D067A
:103C2000481759076A077B0709F49EC10E94D418F8
:103C30008701085F1F4F6F7077277C5FC8010E9464
:103C4000E40C813019F080E090E0F3C180E592E06F
:103C50009A838983F70182819381A481B5818B83C3
:103C60009C83AD83BE8345E350E0BE016F5F7F4F11
:103C7000C8010E94D40D892B19F4C12CD12C6FC11D
:103C80000E94D418F7017783668376276727762703
:103C90007A83698342E050E0BE016F5F7F4FC801C5
:103CA0000E94240C81E090E09E878D8742E050E0E6
:103CB000BE01635F7F4FC8010E94240C80E091E049
:103CC0009E878D8742E050E0BE01635F7F4FC80151
:103CD0000E94240C1E861D8642E050E0BE01635FF8
:103CE0007F4FC8010E94240C42E050E0BE01635F98
:103CF0007F4FC8010E94240C42E050E0BE01635F88
:103D00007F4FC8010E94240C5601F5018081882351
:103D100011F1F6015F018191811115C045018C18E7
:103D20009D081814190494F48F8641E050E0BE01F8
:103D3000615F7F4FC8010E94240CA401B601C80135
:103D40000E94240C03C08E3229F7E8CF6501FFEFF3
:103D5000CF1ADF0ADACF1F8641E050E0BE01615F73
:103D60007F4FC8010E94240CC12CDD24D394DE8631
:103D7000CD8642E050E0BE01635F7F4FC8010E94E4
:103D8000240CDE86CD8642E050E0BE01635F7F4FAB
:103D9000C8010E94240CC8010E948B0D892B09F4D4
:103DA0006CCF63E0A62EB12CF2E06F0E711C0E9466
:103DB000D4181B012C01C8010E94A3121816190661
:103DC000A4F00E94D418DC01CB0182199309A40944
:103DD000B50989389341A105B105D0F462E370E0DB
:103DE00080E090E00E949A18E6CFF701428153816B
:103DF00064817581808D918DA28DB38D481759078F
:103E00006A077B0741F4848D958DC59721F406C020
:103E10002FEF3FEF9AC02EEF3FEF97C0F70181A140
:103E200092A10C970CF4A6C04CE050E0BE016F5F6D
:103E30007F4FC8010E945B128B8190E0982F8827EA
:103E40002C81822B9A8B898B298130E0322F22277B
:103E50004A81242BF701468157814217530709F005
:103E600086C097FF84C08F709270892B09F0DEC0E6
:103E7000CF80D12CDC2CCC248885C82AC114D10455
:103E800009F4D1C0812C912C8D8190E0982F882746
:103E90002E81822B8816990608F46FC0812C912CF4
:103EA00041E050E0BE016D5E7F4FC8010E945B1291
:103EB0008B89982F907C09F093C0811186C08B89E3
:103EC0008111EECF42E050E0BE01615F7F4FC8013B
:103ED0000E945B1242E050E0BE01635F7F4FC80169
:103EE0000E945B12C8010E947A12C8010E947A12D5
:103EF000C8010E947A12C8010E947A1242E050E082
:103F0000BE016F5E7F4FC8010E945B128F8598894A
:103F10008115914009F069C02D853E853227232700
:103F200032272130310509F060C089899A898115CD
:103F3000944009F075C044E050E0B301C8012C8BF7
:103F40003D8B0E945B122C893D896901F1E0AF1A1B
:103F5000B10829F02FEFC216D20609F428CFC80104
:103F60000E94CF0CC60165C08EEF9FEF62C02CEFA0
:103F70003FEFEBCF2DEF3FEFE8CF41E050E0BE0148
:103F8000635F7F4FC8010E945B128D85811113C052
:103F90008D858111F2CFC8010E947A12C8010E945A
:103FA0007A12C8010E947A12C8010E947A12FFEFA9
:103FB0008F1A9F0A69CF8D859FEF980F9D87882361
:103FC00039F3C8010E947A12F6CF8B899FEF980FC0
:103FD0009B8B882309F473CFC8010E947A12F5CF16
:103FE000C8010E947A121B8A6ACF412C512C898900
:103FF0009A899827892798274816590638F4C801BE
:104000000E947A128FEF481A580AF1CFEFEF8E1AFA
:104010009E0A8C149D0409F043CF26EF3FEF95CF05
:1040200027EF3FEF92CF2AEF3FEF8FCF2BEF3FEFFE
:104030008CCF65960FB6F894DEBF0FBECDBFDF9173
:10404000CF911F910F91FF90EF90DF90CF90BF9095
:10405000AF909F908F907F906F905F904F903F9028
:104060002F9008952F923F924F925F926F927F927E
:104070008F929F92AF92BF92CF92DF92EF92FF9278
:104080000F931F93CF93DF93CDB7DEB727970FB66C
:10409000F894DEBF0FBECDBF8C010E946B332FECB6
:1040A00037E040E050E00E94FE37DC01CB01019692
:1040B000A11DB11DF80184839583A683B7838083F6
:1040C0009183A283B3835801F3E4AF0EB11CC50101
:1040D0000E94CF0C64E470E0C5010E94E40C8823C8
:1040E00009F43CC10E94D4182B013C01812C912C75
:1040F0001D82C8018E5B9F4F9F838E8343E0342EC9
:1041000058EEC52E53E0D52EE12CF12C62E0262E80
:10411000AE81BF818C91833009F407C1811120C029
:10412000F80184819581A681B7810196A11DB11DF9
:1041300084839583A683B7830E94D4186419750974
:1041400086099709A70196010E94DC37A90161E061
:10415000C8010E94A91C81E0AE81BF818C93C6C0BA
:104160008430F9F4F80184819581A681B7810196A4
:10417000A11DB11D84839583A683B7830E94D418A3
:104180006419750986099709A70196010E94DC3711
:10419000A90163E0C8010E94A91CAE81BF812C92D5
:1041A000A5C0813061F5F80142AD53AD64AD75AD88
:1041B0009E012F5F3F4FC8010E94E31A8D8382301A
:1041C00009F094C089819A81AB81BC81F801848314
:1041D0009583A683B7830E94D4186419750986094C
:1041E0009709A70196010E94DC37A90163E0C80185
:1041F0000E94A91CED81AE81BF81EC937EC082300C
:1042000009F074C0D801DA964D915D916D917C9161
:10421000DD979E012F5F3F4FC8010E94E31A8D83F7
:10422000853009F05CC0EE81FF813082F80182A107
:1042300093A1A4A1B5A1892B8A2B8B2B41F484E8EF
:1042400093E0A0E0B0E082A393A3A4A3B5A3F801F8
:1042500086A197A1A0A5B1A5892B8A2B8B2B61F4F0
:1042600082A193A1A4A1B5A1B695A795979587958D
:1042700086A397A3A0A7B1A7F80182A593A5A4A59B
:10428000B5A5892B8A2B8B2BA9F482A193A1A4A17C
:10429000B5A1AC01BD0123E076956795579547958B
:1042A0002A95D1F7841B950BA60BB70B82A793A772
:1042B000A4A7B5A7F80186A197A1A0A5B1A586A737
:1042C00097A7A0ABB1AB82A593A5A4A5B5A582ABDA
:1042D00093ABA4ABB5AB88248394912C0EC0FD8125
:1042E000F63021F4AE81BF811C9207C0BD81BF3F73
:1042F00021F4EE81FF8110821D82F1E08F1691047E
:1043000009F406CF0E94D418DC01CB018419950969
:10431000A609B709F80126A937A940AD51AD28175C
:1043200039074A075B0708F0F3CEC5010E94CF0C9E
:10433000F80184819581A681B7810196A11DB11DE7
:1043400084839583A683B7830E94D418F801FE96D0
:104350006083718382839383C40102C080E090E014
:1043600027960FB6F894DEBF0FBECDBFDF91CF9179
:104370001F910F91FF90EF90DF90CF90BF90AF9083
:104380009F908F907F906F905F904F903F902F9075
:10439000089563E080E00E943F2769E776E08EE5BC
:1043A00096E00C945B1563E080E00E943F2768E68E
:1043B00076E08EE596E00C945B150F931F93CF93F8
:1043C000DF930DE011E0C0E0D0E0F80161918F01D2
:1043D000CE010E94BE372196C633D105B1F780E0E9
:1043E00090E00E94B63790910D0189130AC061ECEC
:1043F00076E087EA95E0DF91CF911F910F910C94C1
:104400002316DF91CF911F910F910895CF93C82F5D
:10441000682F607F8EE596E00E94DA1080E1C89FE9
:10442000B00111248EE596E0CF910C94DA1081E072
:104430000E9406228BE39FE10197F1F70895CF9345
:10444000C82F462F61E070E00E945B0D61E070E0D4
:104450008C2F0E94650D8111F9CFCF910895CF93D4
:10446000DF93EC0180E592E0998388831A821B82B6
:104470001C821D8280E590E00E943826BE016E5F9E
:104480007F4F44E050E08FE090E00E942D110E94A9
:104490003726CE01DF91CF9108958F929F92AF92F0
:1044A000BF92CF92DF92EF92FF920F931F93CF9321
:1044B000DF93B82E4B018A01A22E68E270E00E94C1
:1044C000650DC82FD0E069E270E08B2D0E94650D6C
:1044D000DC2FCC27C82B9E013770CB2CD12CC601EA
:1044E000880F991FAC0141565A4F6A01FA01808129
:1044F0009181820F931FA801420F531F41305840F2
:1045000098F060E078E07B01E21AF30AA701B401B9
:104510000E942D11A8014E195F09B4016E0D7F1D77
:10452000F6018081918102C0A801B4010E942D1181
:10453000A1100EC0C00FD11F4D2F68E270E08B2D6F
:104540000E945B0D4C2F69E270E08B2D0E945B0D89
:10455000DF91CF911F910F91FF90EF90DF90CF905F
:10456000BF90AF909F908F9008959F92AF92BF920F
:10457000CF92DF92EF92FF920F931F93CF93DF932F
:10458000982E8B015A01690164E270E00E94650D6A
:10459000E82EF12C65E270E0892D0E94650DFE2C5D
:1045A000EE24E82AE701C00FD11F9E013770E92CE5
:1045B000F12CC701880F991FAC0149565A4F7A0157
:1045C000FA0180819181820F931FA9014C0D5D1D1D
:1045D0004130584090F000E018E0021B130BA80196
:1045E000B5010E945D11A601401B510BB501600F82
:1045F000711FF7018081918102C0A601B5010E945F
:104600005D11CC0DDD1D4D2F64E270E0892D0E94FF
:104610005B0D4C2F65E270E0892DDF91CF911F91EA
:104620000F91FF90EF90DF90CF90BF90AF909F9051
:104630000C945B0DFF920F931F93CF93DF93F82E93
:10464000C0E0D0E08F2D0E940E118C01892B21F04B
:104650008F2D0E940E11EC01C017D10799F7CE01E2
:10466000DF91CF911F910F91FF9008953F924F924C
:104670005F926F927F928F929F92AF92BF92CF92F2
:10468000DF92EF92FF920F931F93CF93DF9300D0AF
:1046900000D0CDB7DEB720910C01233021F02F3FA1
:1046A00009F02CC204C0E0ECF6E0349076C023E0C0
:1046B00020930C01E0ECF6E0E491EF3F09F41EC218
:1046C000E13011F1E23009F443C0E11165C014BCDE
:1046D00015BC24B5226024BD25B5216025BDEFEAB7
:1046E000F6E0E491F0E0EE0FFF1FEE55F94F259153
:1046F000349130938F0620938E06E1E9F6E0E49141
:10470000E0938D06312C4BC01092800010928100F6
:1047100020918100286020938100209181002160F8
:1047200020938100EFEAF6E0E491F0E0EE0FFF1F46
:10473000EE55F94F2591349130938C0620938B06DA
:10474000E1E9F6E0E491E0938A063324339427C04C
:104750001092B0001092B1002091B000226020931E
:10476000B0002091B10021602093B100EFEAF6E0A3
:10477000E491F0E0EE0FFF1FEE55F94F25913491D3
:104780003093920520939105E1E9F6E0E491E093FE
:104790009005B2E03B2E03C03E2E37FCAFC12A018C
:1047A0003B018C0161E083E00E945E184801A12C6E
:1047B000B12C832D8D7F09F0BBC060E072E18AE7E8
:1047C00090E0A50194010E94FE3729833A834B8330
:1047D0005C8369017A0121E0C21AD108E108F1087D
:1047E0008FEFC816D104E104F10409F008F44CC0BD
:1047F00060E472E48FE090E0A50194010E94FE372E
:1048000069017A01E1E0CE1AD108E108F108F2E08D
:104810003F1220C02FEFC216D104E104F10409F0C9
:1048200008F46AC160E970ED83E090E0A5019401AD
:104830000E94FE3769017A0181E0C81AD108E108B7
:10484000F108EFEFCE16D104E104F10409F0D0F540
:1048500083E067C0FFEFCF16D104E104F104B1F0AB
:10486000A8F068E478EE81E090E0A50194010E9450
:10487000FE3769017A0181E0C81AD108E108F10820
:10488000332009F4DFC02FC181E001C082E0332072
:10489000A1F047C089819A81AB81BC812AE0B5959E
:1048A000A795979587952A95D1F76C017D0121E011
:1048B000C21AD108E108F10885E095B5987F892BE7
:1048C00085BD6FC068E478EE81E090E0A5019401B9
:1048D0000E94FE3769017A01F1E0CF1AD108E108A0
:1048E000F1082FEFC216D104E104F10409F008F435
:1048F000A7C064E274EF80E090E0A50194010E94FB
:10490000FE3769017A01E1E0CE1AD108E108F10829
:10491000FFEFCF16D104E104F10411F008F0B4C0A8
:1049200085E09091B100987F892B8093B10039C0C8
:1049300060E072E18AE790E0A50194010E94FE37F1
:1049400069017A0181E0C81AD108E108F108C114AF
:10495000D104E1E0EE06F10488F068E478EE81E04D
:1049600090E0A50194010E94FE3769017A01F1E00F
:10497000CF1AD108E108F10893E001C091E021E0ED
:1049800032120FC080918100887F892B8093810033
:10499000411451046104710449F42FEF3FEFA90160
:1049A0002DC0411451046104710471F0D801AA0FA3
:1049B000BB1FA30192010E941D3828EE33E040E0A6
:1049C00050E00E94DC3703C02FEF3FEFA90181E0E8
:1049D0003816A1F0E2E03E1619F131108FC0C7BCC5
:1049E000209394063093950640939606509397062D
:1049F00080916E00826080936E0080C0D0928900AA
:104A0000C0928800209390063093910640939206BE
:104A10005093930680916F00826080936F006EC008
:104A2000C092B3002093930530939405409395056D
:104A300050939605809170008260809370005EC0F4
:104A400084E06FCFFFEFCF16D104E104F104D1F081
:104A5000C8F062E17AE780E090E0A50194010E944D
:104A6000FE3769017A0181E0C81AD108E108F1082E
:104A7000EFEFCE16D104E104F10411F008F00ACFF3
:104A800084E01BCF83E019CF62E17AE780E090E019
:104A9000A50194010E94FE3769017A0181E0C81ADC
:104AA000D108E108F108EFEFCE16D104E104F104DA
:104AB000C1F0B8F089819A81AB81BC814AE0B5959B
:104AC000A795979587954A95D1F76C017D0121E0CF
:104AD000C21AD108E108F108332009F4EDCE87E0CD
:104AE00020CF86E0D4CEFFEFCF16D104E104F1044D
:104AF00009F050F684E0CBCE82E013CF0F900F90F8
:104B00000F900F90DF91CF911F910F91FF90EF9039
:104B1000DF90CF90BF90AF909F908F907F906F90DD
:104B20005F904F903F900895CF93DF931F92CDB742
:104B3000DEB76983DC01ED91FC910280F381E02D09
:104B400041E050E0BE016F5F7F4F09950F90DF910C
:104B5000CF910895DC01ED91FC91068CF78DE02D4D
:104B6000099591E089270895862F089581E0862789
:104B70000895089580E090E00895CF92DF92EF923B
:104B8000FF920F931F93CF93DF93CDB7DEB7AF970D
:104B90000FB6F894DEBF0FBECDBF7C016A0100E501
:104BA00012E01A8309831C861B8688EE93E0A0E03E
:104BB000B0E08D879E87AF87B88B82E891E09A87B7
:104BC0008987188F0F8B198E1A8E1B8E1C8E84E08E
:104BD00089A31DA30CA31EA21FA218A619A680912B
:104BE000520690915306A0915406B09155068CA799
:104BF0009DA7AEA7BFA78B839C83AD83BE8318867A
:104C00001F82AE014C5D5F4FCE0101960E94B71D21
:104C100081309105B1F4D701ED91FC910684F785BF
:104C2000E02D1BA70AA78EA19FA1A8A5B9A58CA7B7
:104C30009DA7AEA7BFA7A601BE01665D7F4FC701B6
:104C40000995AF960FB6F894DEBF0FBECDBFDF91CA
:104C5000CF911F910F91FF90EF90DF90CF9008952B
:104C600044E050E0BC018FE090E00C945D110895A9
:104C70008CBD9DBD08958F929F92AF92BF92CF92AF
:104C8000DF92EF92FF920F931F93CF936C015B0122
:104C90007A01FC01C485C43041F481E090E0F60162
:104CA0009383828380E090E04EC08A014130584077
:104CB00010F000E018E080E590E00E9438268C2F8C
:104CC0000E941A234C0163E070E08C2F0E94650D56
:104CD000873111F08C3121F48016910660F302C007
:104CE00000E010E080E590E00E9438269801A501E0
:104CF00060E070E08C2F0E94B52260E270E08C2FA3
:104D00000E941F2262E070E08C2F0E94650D84FDDE
:104D100010C063E070E08C2F0E94650D811104C00B
:104D20008C2F0E94FC12B9CF80E590E00E943826BB
:104D3000E9CF40E162E070E08C2F0E945B0D012B17
:104D400009F4ABCFC701CF911F910F91FF90EF9066
:104D5000DF90CF90BF90AF909F908F900895CF92AB
:104D6000DF92FF920F931F93CF93DF93FC01248573
:104D7000243009F077C06A01EB018C01F12C8F2DF2
:104D80000E94CB13811103C0F801F48607C08B7F0A
:104D90008831D1F3F394F4E0FF12F1CFF801848568
:104DA000843009F45FC020914301309144012F5FAA
:104DB0003F4F11F420E030EC309344012093430145
:104DC000409143015091440120E061E00E941013A2
:104DD000F801F4848A818F3F51F48B818F3F91F4E5
:104DE0008C818F3F79F48D818F3F61F438C08111C0
:104DF00009C08B81811106C08C81811103C08D8116
:104E0000882369F1C114D10451F180E590E00E943A
:104E10003826BE016E5F7F4F8F2D90E0982F882738
:104E200044E050E0845F9B4F0E945D11B6018F2DDE
:104E30000E94C30D64E070E08F2D0E941F22C80104
:104E40000E94140E873189F061E070E080E090E00C
:104E50000E949A18C8010E94140E8111F0CF84E0BC
:104E6000F801848780E090E002C081E090E0DF916B
:104E7000CF911F910F91FF90DF90CF900895CF9326
:104E8000DF93CDB7DEB728970FB6F894DEBF0FBE1D
:104E9000CDBF98E0E8E5F2E0DE01119601900D92B9
:104EA0009A95E1F790916706961710F46FEF690FE6
:104EB000FE013196E60FF11DE60FF11D9081890F7D
:104EC000806828960FB6F894DEBF0FBECDBFDF9185
:104ED000CF910C940622CF92DF92EF92FF920F9324
:104EE0001F93CF93DF936B01770FEE08FF08F7FE58
:104EF0001BC0EC016DE20E9454158C01442755271C
:104F0000BA014C195D096E097F092AE0CE010E94A1
:104F10009415800F911FDF91CF911F910F91FF90FA
:104F2000EF90DF90CF9008952AE0B701A601DF91BE
:104F3000CF911F910F91FF90EF90DF90CF900C9445
:104F400094158091450120E4829FC0011124809333
:104F50007C0080917A00806480937A0080917A004E
:104F600086FDFCCF809178002091790090E0922B13
:104F70000895CF93DF93CDB7DEB761970FB6F8945E
:104F8000DEBF0FBECDBF789484B5826084BD84B58A
:104F9000816084BD85B5826085BD85B5816085BD34
:104FA00080916E00816080936E00109281008091EC
:104FB0008100826080938100809181008160809374
:104FC0008100809180008160809380008091B10099
:104FD00084608093B1008091B00081608093B000C4
:104FE00080917A00846080937A0080917A00826058
:104FF00080937A0080917A00816080937A0080911A
:105000007A00806880937A001092C100E091B70521
:10501000F091B80582E08083E091B305F091B4058A
:105020001082E091B505F091B60580E18083109281
:10503000BF05E091BB05F091BC0586E08083E0915F
:10504000B905F091BA05808180618083E091B9054E
:10505000F091BA05808188608083E091B905F09174
:10506000BA05808180688083E091B905F091BA0526
:1050700080818F7D808368E171E087EA95E00E94FE
:105080005B1560E672E087EA95E00E94191766EE0C
:1050900070E087EA95E00E94231683E08093450143
:1050A00060E082E00E945E1860E08EE00E945E1880
:1050B00061E084E00E945E1861E083E00E945E1877
:1050C00062E085E00E945E1880E090E00E94B637C2
:1050D00090910D01891799F10E9483071092E402C3
:1050E0001092E3021092E2021092E1021092E002AA
:1050F00081E08093DF021092DE0261E082E10E9493
:10510000AC1761E083E10E94AC178091B9008E7FFB
:105110008093B9008091B9008D7F8093B90088E4B5
:105120008093B80085E48093BC0010926306809160
:1051300067068230B0F098E09093630612C0ADE04D
:10514000EA2EA1E0FA2E00E010E0C8010E94B63776
:10515000D7018D937D010F5F1F4F06331105A9F70E
:10516000BBCF90916806992339F0813029F4809162
:10517000630684608093630662E370E080E090E001
:105180000E949A18609169068EE596E00E9475105B
:1051900068EE73E080E090E00E949A1860E38EE58C
:1051A00096E00E94DA100BE416E4C8010197F1F7CB
:1051B00060E38EE596E00E94DA10C8010197F1F7EE
:1051C00060E38EE596E00E94DA1083E592E00197B5
:1051D000F1F760E28EE596E00E94DA1080916306B6
:1051E00080620E94062284E0809364068CE00E9424
:1051F00006220E94172282E08093650686E00E94C4
:10520000062282E00E9406228BE39FE10197F1F7DC
:1052100088E08093690660E08EE596E00E94751054
:1052200081E08093060160E085E00E943F276FEDFA
:1052300070E08EE596E00E945B1560E672E08EE518
:1052400096E00E94191761E080E00E943F276AEC17
:1052500070E08EE596E00E945B1562E089E00E94B6
:105260003F2766EC70E08EE596E00E945B1563E0F8
:1052700080E00E943F2761EB70E08EE596E00E949F
:105280005B1500910001109101011016110634F414
:1052900085E00E948317892B09F040C00E941722E5
:1052A000F894109280001092810010928500109264
:1052B000840088E09DE3909389008093880080912A
:1052C0008100886080938100809181008560809357
:1052D000810080916F00826080936F0083E993E08A
:1052E0009093030180930201809169008360809311
:1052F0006900E89A789445E150E060E270E081EF5F
:1053000092E00E94BC3910920503809139018823F4
:1053100091F061E084E00E94AC170DC004561109C1
:10532000109301010093000164E670E080E090E0DA
:105330000E949A18A6CF22242A94322CE8EE8E2EB0
:10534000E3E09E2EA12CB12CF0E1CF2EF2E0DF2E77
:1053500087EA95E00E9440147C01892B69F187EA75
:1053600095E00E941E148A3089F08D30B9F02091AA
:10537000650330916603F901E75DFC4F80832F5F81
:105380003F4F309366032093650308C089E293E0A2
:105390000E941A0A1092660310926503E091650359
:1053A000F0916603E75DFC4F10826AE070E080E0F8
:1053B00090E00E949A18CCCF85E00E948317019755
:1053C00009F464C164EF71E080E090E00E949A18F3
:1053D00085E00E948317892B19F082E090E002C0DB
:1053E00081E090E09093E6028093E50280910601CF
:1053F000811102C00E941C0480913D0190E09093B5
:105400000A0180930901809107019091080197FF9B
:1054100007C08091E5029091E602019709F486C4E5
:105420008091E5029091E6020297F9F40E9417221A
:10543000809107019091080197FF0AC001978B3F67
:10544000BFEF9B074CF430920801209207010DC07A
:105450000196873091052CF4909308018093070101
:1054600004C01092080110920701009107011091E9
:10547000080117FDFBC00E9417220730110508F034
:10548000F5C0F801EC5CFF4F0C9495392091E502D2
:105490003091E60281E090E02130310511F080E0AA
:1054A00090E091958195910990930801809307016F
:1054B00063ED71E08EE596E00E945B1563E080E0AD
:1054C0000E943F2764EC71E08EE596E00E945B1538
:1054D0008091070190910801019609F0C7C00E94D0
:1054E0001722C4C064EB71E08EE596E00E945B1564
:1054F00063E080E00E943F278091E5029091E60200
:10550000019749F40E94830710928500109284004D
:105510006BEA71E08DC06BE971E08AC08091E502B1
:105520009091E602019731F490913C0181E0892746
:1055300080933C0164E971E08EE596E00E945B1582
:1055400061E080E00E943F2780913C0155C080913E
:10555000E5029091E602019751F480913D01865F4A
:10556000893718F480933D0102C010923D016EE727
:1055700071E08EE596E00E945B1561E080E00E949C
:105580003F2740913D01442349F050E060E070E046
:105590002AE08EE596E00E94941506C06DE871E061
:1055A0008EE596E00E945B150E94D3215FC080913A
:1055B000E5029091E602019799F49091390181E01A
:1055C000892780933901882349F00E94740821E0DB
:1055D000892B09F420E02093270302C010922703AF
:1055E0006AE671E08EE596E00E945B1561E080E07E
:1055F0000E943F2780913901882381F261E971E09F
:10560000CFCF6AE571E08EE596E00E945B1563E01E
:1056100080E00E943F278091E5029091E602019789
:1056200029F40E94DD2163E571E002C064E471E0C9
:105630008EE596E00E945B1519C062E371E08EE58D
:1056400096E00E945B1563E080E00E943F276FE1D7
:1056500071E08EE596E00E945B158091E5029091E5
:10566000E602019719F481E00E94F20385E00E94AE
:105670008317892B39F462E370E080E090E00E94A8
:105680009A18F4CF1092E6021092E50280910B0175
:10569000882309F4B1C08CE892E00E94E906BC01BD
:1056A00087EA95E00E947F1565E672E087EA95E05B
:1056B0000E947F158091090190910A011816190620
:1056C0003CF080913D01882319F080E00E94F203B4
:1056D00010920B01009107011091080117FF8CC077
:1056E0000E94A127BC01990F880B990B0E94993643
:1056F00020E030E048EC52E40E94F8362B013C01F7
:1057000060913E0170E080E090E00E9499369B013C
:10571000AC01C301B2010E94E33820E030E044EB69
:1057200053E40E94923687FD8BC60E94A127BC01DC
:10573000990F880B990B0E94993620E030E048ECD5
:1057400052E40E94F8362B013C0160913E0170E06A
:1057500080E090E00E9499369B01AC01C301B20148
:105760000E94E33820E030E04CED53E40E948B3996
:1057700018160CF465C610921A0360E080E00E94CF
:105780003F270E5F1F4F02301105B8F40E944604F8
:10579000E6E0F3E001900020E9F73197BF016650A1
:1057A00073406F507D4F8EE596E00E94191766E0BA
:1057B00073E08EE596E00E941917809107019091A1
:1057C00008018D3FFFEF9F0709F417C50CF0B9C220
:1057D0008B3F3FEF930709F4E1C5049609F472C5C6
:1057E00020911B0330911C0380913A0190913B0161
:1057F0008217930708F4FFC580912803882339F1A5
:1058000080913C01882399F020911B0330911C0367
:1058100080913A0190913B012817390740F44AE002
:1058200050E060E070E080E991E00E94362361E0A2
:1058300084E00E94AC1764E670E080E090E00E9493
:105840009A1860E084E00E94AC17109228038091BF
:105850002703882309F4FDC080913901882309F4C6
:1058600000C184E896E00E94F50E0DE113E0712C72
:105870001C821B828D829E82AF82B886DA82C982A8
:105880007D86F801219131918F0180918806909158
:10589000890628173907F1F4CE0101960E94140EEB
:1058A000873111F08C31B1F4CE0101960E94520D76
:1058B000892B81F0EB80FC808D819E81AF81B88542
:1058C00029853A854B855C852E873F87488B598B88
:1058D0007D8408C0739434E07312CACF88EE93E0DD
:1058E000A0E0B0E0F0927A06E092790680937B0621
:1058F00090937C06A0937D06B0937E068E859F854F
:10590000A889B98980937F0690938006A093810629
:10591000B09382067092830694E0791609F4A1C0D0
:105920001092940311E087E796E00E94890E882385
:1059300009F48AC087E796E00E94520D892B09F48A
:105940007CC087E796E00E94380D8D3009F064C076
:105950006CE673E087EA95E00E9419178CE693E005
:105960009A838983AE014F5F5F4F6DE772E00E94BB
:10597000B634AE014F5F5F4F6CE872E089819A8167
:105980000E94B634DC012C91222329F00E941A0ACD
:10599000811110936B03ECE6F3E001900020E9F72E
:1059A000EE56F340A1F561E373E087E796E00E94CD
:1059B0005B1580912503882319F060E173E002C034
:1059C00065EF72E087E796E00E945B156FED72E08D
:1059D00087E796E00E945B1580912503882329F0D4
:1059E00087E796E00E94FD040DC080916B03882339
:1059F00019F06CED72E002C063ED72E087E796E0AB
:105A00000E9423161092250310926B031DC0109262
:105A1000940310926C0311C0E0919403AE2FB0E098
:105A2000A459BC4F8C93EF5FE83208F0E7E2E093B3
:105A30009403F0E0E459FC4F108261E070E080E0F4
:105A400090E00E949A186FCF87E796E00E94AD0E13
:105A500008C00E94740821E0892B09F420E02093FB
:105A6000270380912603882309F45DC180912703D1
:105A7000882309F456C16DE673E087EA95E00E9439
:105A80005B1564E171E0CE0101960E941B1740E5B1
:105A900050E0BE016F5F7F4F8AE696E00E94AF261E
:105AA000892B09F442C068E673E08AE696E00E941A
:105AB0005B1568E171E08AE696E00E94191766E6D8
:105AC00073E08AE696E00E945B158FE792E00E9401
:105AD000E906BC018AE696E00E9419176AE573E0C0
